{
  "_format": "hh-sol-artifact-1",
  "contractName": "FairPay",
  "sourceName": "contracts/FairPay.sol",
  "abi": [
    {
      "inputs": [],
      "stateMutability": "nonpayable",
      "type": "constructor"
    },
    {
      "inputs": [],
      "name": "ZamaProtocolUnsupported",
      "type": "error"
    },
    {
      "anonymous": false,
      "inputs": [
        {
          "indexed": true,
          "internalType": "uint256",
          "name": "negotiationId",
          "type": "uint256"
        },
        {
          "indexed": true,
          "internalType": "address",
          "name": "candidate",
          "type": "address"
        }
      ],
      "name": "CandidateRangeSubmitted",
      "type": "event"
    },
    {
      "anonymous": false,
      "inputs": [
        {
          "indexed": false,
          "internalType": "bytes32",
          "name": "handle",
          "type": "bytes32"
        },
        {
          "indexed": false,
          "internalType": "bool",
          "name": "isPubliclyDecryptable",
          "type": "bool"
        }
      ],
      "name": "DecryptabilityCheck",
      "type": "event"
    },
    {
      "anonymous": false,
      "inputs": [
        {
          "indexed": true,
          "internalType": "uint256",
          "name": "negotiationId",
          "type": "uint256"
        },
        {
          "indexed": true,
          "internalType": "address",
          "name": "employer",
          "type": "address"
        }
      ],
      "name": "EmployerRangeSubmitted",
      "type": "event"
    },
    {
      "anonymous": false,
      "inputs": [
        {
          "indexed": true,
          "internalType": "uint256",
          "name": "negotiationId",
          "type": "uint256"
        }
      ],
      "name": "MatchCalculationStarted",
      "type": "event"
    },
    {
      "anonymous": false,
      "inputs": [
        {
          "indexed": true,
          "internalType": "uint256",
          "name": "negotiationId",
          "type": "uint256"
        },
        {
          "indexed": false,
          "internalType": "bool",
          "name": "hasMatch",
          "type": "bool"
        },
        {
          "indexed": false,
          "internalType": "uint64",
          "name": "meetingPoint",
          "type": "uint64"
        }
      ],
      "name": "MatchRevealed",
      "type": "event"
    },
    {
      "anonymous": false,
      "inputs": [
        {
          "indexed": true,
          "internalType": "uint256",
          "name": "negotiationId",
          "type": "uint256"
        },
        {
          "indexed": true,
          "internalType": "address",
          "name": "employer",
          "type": "address"
        },
        {
          "indexed": true,
          "internalType": "address",
          "name": "candidate",
          "type": "address"
        },
        {
          "indexed": false,
          "internalType": "string",
          "name": "title",
          "type": "string"
        },
        {
          "indexed": false,
          "internalType": "uint256",
          "name": "deadline",
          "type": "uint256"
        }
      ],
      "name": "NegotiationCreated",
      "type": "event"
    },
    {
      "anonymous": false,
      "inputs": [
        {
          "indexed": true,
          "internalType": "uint256",
          "name": "negotiationId",
          "type": "uint256"
        },
        {
          "indexed": false,
          "internalType": "bytes32",
          "name": "handle",
          "type": "bytes32"
        },
        {
          "indexed": false,
          "internalType": "string",
          "name": "valueType",
          "type": "string"
        }
      ],
      "name": "ValueMarkedPubliclyDecryptable",
      "type": "event"
    },
    {
      "inputs": [
        {
          "internalType": "uint256",
          "name": "negotiationId",
          "type": "uint256"
        }
      ],
      "name": "calculateMatch",
      "outputs": [],
      "stateMutability": "nonpayable",
      "type": "function"
    },
    {
      "inputs": [
        {
          "internalType": "bytes32",
          "name": "handle",
          "type": "bytes32"
        }
      ],
      "name": "checkIfMarked",
      "outputs": [
        {
          "internalType": "bool",
          "name": "",
          "type": "bool"
        }
      ],
      "stateMutability": "view",
      "type": "function"
    },
    {
      "inputs": [],
      "name": "confidentialProtocolId",
      "outputs": [
        {
          "internalType": "uint256",
          "name": "",
          "type": "uint256"
        }
      ],
      "stateMutability": "view",
      "type": "function"
    },
    {
      "inputs": [
        {
          "internalType": "address",
          "name": "_candidate",
          "type": "address"
        },
        {
          "internalType": "string",
          "name": "_title",
          "type": "string"
        },
        {
          "internalType": "uint256",
          "name": "_deadlineDuration",
          "type": "uint256"
        }
      ],
      "name": "createNegotiation",
      "outputs": [
        {
          "internalType": "uint256",
          "name": "",
          "type": "uint256"
        }
      ],
      "stateMutability": "nonpayable",
      "type": "function"
    },
    {
      "inputs": [
        {
          "internalType": "uint256",
          "name": "negotiationId",
          "type": "uint256"
        }
      ],
      "name": "getMatchHandles",
      "outputs": [
        {
          "internalType": "bytes32",
          "name": "hasMatchHandle",
          "type": "bytes32"
        },
        {
          "internalType": "bytes32",
          "name": "meetingPointHandle",
          "type": "bytes32"
        }
      ],
      "stateMutability": "view",
      "type": "function"
    },
    {
      "inputs": [
        {
          "internalType": "uint256",
          "name": "negotiationId",
          "type": "uint256"
        }
      ],
      "name": "getMatchHandlesWithStatus",
      "outputs": [
        {
          "internalType": "bytes32",
          "name": "hasMatchHandle",
          "type": "bytes32"
        },
        {
          "internalType": "bytes32",
          "name": "meetingPointHandle",
          "type": "bytes32"
        },
        {
          "internalType": "bool",
          "name": "hasMatchMarked",
          "type": "bool"
        },
        {
          "internalType": "bool",
          "name": "meetingPointMarked",
          "type": "bool"
        }
      ],
      "stateMutability": "view",
      "type": "function"
    },
    {
      "inputs": [
        {
          "internalType": "uint256",
          "name": "negotiationId",
          "type": "uint256"
        }
      ],
      "name": "getMatchResult",
      "outputs": [
        {
          "internalType": "bool",
          "name": "hasMatch",
          "type": "bool"
        },
        {
          "internalType": "uint64",
          "name": "meetingPoint",
          "type": "uint64"
        }
      ],
      "stateMutability": "view",
      "type": "function"
    },
    {
      "inputs": [
        {
          "internalType": "uint256",
          "name": "negotiationId",
          "type": "uint256"
        }
      ],
      "name": "getNegotiationState",
      "outputs": [
        {
          "internalType": "enum FairPay.NegotiationState",
          "name": "",
          "type": "uint8"
        }
      ],
      "stateMutability": "view",
      "type": "function"
    },
    {
      "inputs": [
        {
          "internalType": "uint256",
          "name": "negotiationId",
          "type": "uint256"
        }
      ],
      "name": "getNegotiationSummary",
      "outputs": [
        {
          "components": [
            {
              "internalType": "uint256",
              "name": "negotiationId",
              "type": "uint256"
            },
            {
              "internalType": "address",
              "name": "employer",
              "type": "address"
            },
            {
              "internalType": "address",
              "name": "candidate",
              "type": "address"
            },
            {
              "internalType": "string",
              "name": "title",
              "type": "string"
            },
            {
              "internalType": "enum FairPay.NegotiationState",
              "name": "state",
              "type": "uint8"
            },
            {
              "internalType": "uint256",
              "name": "createdAt",
              "type": "uint256"
            },
            {
              "internalType": "uint256",
              "name": "deadline",
              "type": "uint256"
            },
            {
              "internalType": "bool",
              "name": "hasMatchResult",
              "type": "bool"
            },
            {
              "internalType": "bool",
              "name": "matchRevealed",
              "type": "bool"
            },
            {
              "internalType": "uint64",
              "name": "meetingPoint",
              "type": "uint64"
            }
          ],
          "internalType": "struct FairPay.NegotiationSummary",
          "name": "",
          "type": "tuple"
        }
      ],
      "stateMutability": "view",
      "type": "function"
    },
    {
      "inputs": [],
      "name": "getTotalNegotiations",
      "outputs": [
        {
          "internalType": "uint256",
          "name": "",
          "type": "uint256"
        }
      ],
      "stateMutability": "view",
      "type": "function"
    },
    {
      "inputs": [
        {
          "internalType": "address",
          "name": "user",
          "type": "address"
        }
      ],
      "name": "getUserNegotiations",
      "outputs": [
        {
          "internalType": "uint256[]",
          "name": "",
          "type": "uint256[]"
        }
      ],
      "stateMutability": "view",
      "type": "function"
    },
    {
      "inputs": [
        {
          "internalType": "uint256",
          "name": "negotiationId",
          "type": "uint256"
        }
      ],
      "name": "isExpired",
      "outputs": [
        {
          "internalType": "bool",
          "name": "",
          "type": "bool"
        }
      ],
      "stateMutability": "view",
      "type": "function"
    },
    {
      "inputs": [
        {
          "internalType": "bytes32",
          "name": "",
          "type": "bytes32"
        }
      ],
      "name": "isMarkedPubliclyDecryptable",
      "outputs": [
        {
          "internalType": "bool",
          "name": "",
          "type": "bool"
        }
      ],
      "stateMutability": "view",
      "type": "function"
    },
    {
      "inputs": [
        {
          "internalType": "uint256",
          "name": "negotiationId",
          "type": "uint256"
        },
        {
          "internalType": "address",
          "name": "user",
          "type": "address"
        }
      ],
      "name": "isParticipant",
      "outputs": [
        {
          "internalType": "bool",
          "name": "",
          "type": "bool"
        }
      ],
      "stateMutability": "view",
      "type": "function"
    },
    {
      "inputs": [],
      "name": "negotiationCounter",
      "outputs": [
        {
          "internalType": "uint256",
          "name": "",
          "type": "uint256"
        }
      ],
      "stateMutability": "view",
      "type": "function"
    },
    {
      "inputs": [
        {
          "internalType": "uint256",
          "name": "",
          "type": "uint256"
        }
      ],
      "name": "negotiations",
      "outputs": [
        {
          "internalType": "uint256",
          "name": "negotiationId",
          "type": "uint256"
        },
        {
          "internalType": "address",
          "name": "employer",
          "type": "address"
        },
        {
          "internalType": "address",
          "name": "candidate",
          "type": "address"
        },
        {
          "internalType": "enum FairPay.NegotiationState",
          "name": "state",
          "type": "uint8"
        },
        {
          "internalType": "string",
          "name": "title",
          "type": "string"
        },
        {
          "internalType": "uint256",
          "name": "createdAt",
          "type": "uint256"
        },
        {
          "internalType": "uint256",
          "name": "deadline",
          "type": "uint256"
        },
        {
          "internalType": "euint64",
          "name": "employerMin",
          "type": "bytes32"
        },
        {
          "internalType": "euint64",
          "name": "employerMax",
          "type": "bytes32"
        },
        {
          "internalType": "euint64",
          "name": "candidateMin",
          "type": "bytes32"
        },
        {
          "internalType": "euint64",
          "name": "candidateMax",
          "type": "bytes32"
        },
        {
          "internalType": "ebool",
          "name": "hasMatch",
          "type": "bytes32"
        },
        {
          "internalType": "euint64",
          "name": "meetingPoint",
          "type": "bytes32"
        },
        {
          "internalType": "bool",
          "name": "matchRevealed",
          "type": "bool"
        },
        {
          "internalType": "bool",
          "name": "hasMatchResult",
          "type": "bool"
        },
        {
          "internalType": "uint64",
          "name": "decryptedMeetingPoint",
          "type": "uint64"
        }
      ],
      "stateMutability": "view",
      "type": "function"
    },
    {
      "inputs": [
        {
          "internalType": "uint256",
          "name": "negotiationId",
          "type": "uint256"
        },
        {
          "internalType": "bool",
          "name": "hasMatch",
          "type": "bool"
        },
        {
          "internalType": "uint64",
          "name": "meetingPoint",
          "type": "uint64"
        }
      ],
      "name": "revealMatch",
      "outputs": [],
      "stateMutability": "nonpayable",
      "type": "function"
    },
    {
      "inputs": [
        {
          "internalType": "uint256",
          "name": "negotiationId",
          "type": "uint256"
        },
        {
          "internalType": "externalEuint64",
          "name": "encryptedMin",
          "type": "bytes32"
        },
        {
          "internalType": "externalEuint64",
          "name": "encryptedMax",
          "type": "bytes32"
        },
        {
          "internalType": "bytes",
          "name": "inputProof",
          "type": "bytes"
        }
      ],
      "name": "submitCandidateRange",
      "outputs": [],
      "stateMutability": "nonpayable",
      "type": "function"
    },
    {
      "inputs": [
        {
          "internalType": "uint256",
          "name": "negotiationId",
          "type": "uint256"
        },
        {
          "internalType": "externalEuint64",
          "name": "encryptedMin",
          "type": "bytes32"
        },
        {
          "internalType": "externalEuint64",
          "name": "encryptedMax",
          "type": "bytes32"
        },
        {
          "internalType": "bytes",
          "name": "inputProof",
          "type": "bytes"
        }
      ],
      "name": "submitEmployerRange",
      "outputs": [],
      "stateMutability": "nonpayable",
      "type": "function"
    }
  ],
  "bytecode": "0x6080604052346101255761001161015c565b50466001036100ee5761002261015c565b5061002b610129565b5f81525f60208201525f60408201525b80517f9e7b61f58c47dc699ac88507c4f5bb9f121c03808c5676a8078fe583e464970080546001600160a01b039283166001600160a01b03199182161790915560208301517f9e7b61f58c47dc699ac88507c4f5bb9f121c03808c5676a8078fe583e464970180549184169183169190911790556040928301517f9e7b61f58c47dc699ac88507c4f5bb9f121c03808c5676a8078fe583e4649702805491909316911617905551611cc590816101d68239f35b4662aa36a70361010557610100610176565b61003b565b46617a690361011657610100610176565b6373cac13b60e01b5f5260045ffd5b5f80fd5b60405190606082016001600160401b0381118382101761014857604052565b634e487b7160e01b5f52604160045260245ffd5b610164610129565b905f82525f60208301525f6040830152565b61017e61015c565b50610187610129565b73f0ffdc93b7e186bc2f8cb3daa75d86d1930a433d81527392c920834ec8941d2c77d188936e1f7a6f49c127602082015273be0e383937d564d7ff0bc3b46c51f0bf8d5c311a60408201529056fe60806040526004361015610011575f80fd5b5f3560e01c806303fed7c0146113a35780632f885b8114610e3f5780633584803314610a67578063515224cf146108eb5780636c96ee9014610857578063758d9b89146107da57806384cc0a0d146106285780638927b030146106065780638cbd2186146104a95780639219dffa146101a25780639476bdda14610431578063a1823be114610415578063a6da259f14610415578063b915aa76146103cf578063cfe3d27a1461032a578063d9548e53146102ee578063dcd906e1146101d1578063e36b8af1146101a25763eb41c78e146100ea575f80fd5b3461019e57602036600319011261019e576001600160a01b0361010b611571565b165f52600260205260405f20604051806020835491828152019081935f5260205f20905f5b818110610188575050508161014691038261160d565b604051918291602083019060208452518091526040830191905f5b81811061016f575050500390f35b8251845285945060209384019390920191600101610161565b8254845260209093019260019283019201610130565b5f80fd5b3461019e57602036600319011261019e576004355f526003602052602060ff60405f2054166040519015158152f35b3461019e57602036600319011261019e576004355f52600160205260405f20805460018201546001600160a01b0316916002810154600382016102139061162f565b91600481015492600582015460068301546007840154600885015491600986015493600a87015495600b88015497600c0154986040519c8d9c8d5260208d01526001600160a01b03811660408d015260608c019060a01c60ff1690610277916115ab565b60808b0161020090526102008b0161028e91611587565b9860a08b015260c08a015260e089015261010088015261012087015261014086015261016085015261018084015260ff811615156101a08401528060081c60ff1615156101c084015260101c67ffffffffffffffff166101e08301520390f35b3461019e57602036600319011261019e5760043561030e5f5482106116cf565b5f5260016020526020600560405f200154421015604051908152f35b3461019e57602036600319011261019e5760043561034a5f5482106116cf565b5f526001602052600c60405f20015460ff81161561038a5760408051600883901c60ff161515815260109290921c67ffffffffffffffff16602083015290f35b60405162461bcd60e51b815260206004820152601660248201527f4d61746368206e6f74207965742072657665616c6564000000000000000000006044820152606490fd5b3461019e57602036600319011261019e576004356103ef5f5482106116cf565b5f526001602052602060ff600260405f20015460a01c1661041360405180926115ab565bf35b3461019e575f36600319011261019e5760205f54604051908152f35b3461019e57602036600319011261019e576004356104515f5482106116cf565b5f52600160205260405f2060ff600282015460a01c169060058210156104955761047f6003604093146117ed565b600b600a82015491015482519182526020820152f35b634e487b7160e01b5f52602160045260245ffd5b3461019e57606036600319011261019e576004356024358015159081810361019e576044359067ffffffffffffffff8216820361019e576104ec5f5485106116cf565b835f52600160205260405f2092600284019060ff825460a01c166005811015610495576003036105c157600c7f4061774490a21aa498f5c4c4ce988fb9018ed9541063ecebe2809120e7efa32d950190815490600169ffffffffffffffff00008760101b169261ff0069ffffffffffffffff0000199360081b169061ffff19161717161790557404000000000000000000000000000000000000000060ff60a01b198254161790556105bc6040519283928390929167ffffffffffffffff60209160408401951515845216910152565b0390a2005b60405162461bcd60e51b815260206004820152601860248201527f4d61746368206e6f742063616c63756c617465642079657400000000000000006044820152606490fd5b3461019e575f36600319011261019e576020610620611afd565b604051908152f35b3461019e57602036600319011261019e576004355f61012060405161064c816115f0565b8281528260208201528260408201526060808201528260808201528260a08201528260c08201528260e082015282610100820152015261068e5f5482106116cf565b5f52600160205260405f2080546001600160a01b036001830154169160028101549060ff8260a01c1691600482015460058301546106f96003600c86015495604051986106da8a6115f0565b895260208901998a526001600160a01b0360408a01961686520161162f565b91606087019283526080870195600581101561049557865260a0870190815260c0870191825260e08701928560081c60ff161515845261010088019460ff87161515865261012089019660101c67ffffffffffffffff168752604051998a9960208b525160208b0152516001600160a01b031660408a0152516001600160a01b0316606089015251608088016101409052610160880161079891611587565b955160a088016107a7916115ab565b5160c08701525160e08601525115156101008501525115156101208401525167ffffffffffffffff166101408301520390f35b3461019e57604036600319011261019e576004356024356001600160a01b03811680910361019e576020916108115f5482106116cf565b5f526001825260405f20906001600160a01b036001830154168114918215610840575b50506040519015158152f35b600201546001600160a01b03161490508280610834565b3461019e57602036600319011261019e576004356108775f5482106116cf565b5f52600160205260405f2060ff600282015460a01c16906005821015610495576108a56003608093146117ed565b600b600a820154910154815f52600360205260ff60405f205416815f52600360205260ff60405f2054169160405193845260208401521515604083015215156060820152f35b3461019e576108f936611535565b9192906109085f5486106116cf565b845f52600160205260405f2090600282019485546001600160a01b0381163303610a225760a01c60ff166005811015610495576001036109dd576109696109779261096f60099661095e6005880154421061171b565b610969368a85611767565b90611839565b963691611767565b926109818161194d565b5061098b8461194d565b50600882015501557402000000000000000000000000000000000000000060ff60a01b1982541617905533907fef9d80981eb4ba4a22820a0969b48932fdad0d6c3ce3da37d4ea127e332a31d35f80a3005b60405162461bcd60e51b815260206004820152601a60248201527f456d706c6f796572206d757374207375626d69742066697273740000000000006044820152606490fd5b60405162461bcd60e51b815260206004820152601960248201527f4f6e6c792063616e6469646174652063616e207375626d6974000000000000006044820152606490fd5b3461019e57606036600319011261019e57610a80611571565b60243567ffffffffffffffff811161019e57610aa0903690600401611507565b6001600160a01b036044939293359216908115610dfa57338214610daa5780151580610d9f575b15610d5a57610e108310610d16575f549260018401808511610c39575f55835f52600160205260405f2090848255600182016001600160a01b03331673ffffffffffffffffffffffffffffffffffffffff19825416179055600282018473ffffffffffffffffffffffffffffffffffffffff1982541617815560ff60a01b1981541690556003820167ffffffffffffffff8411610d0257610b6881546115b8565b601f8111610cbd575b50835f601f8211600114610c58575f91610c4d575b508460011b905f198660031b1c19161790555b426004830155420190814211610c3957602095859260057f8fec4d9c0e95417ef4f50017835b07a71ae4e15330aaea1604dcdbb58d55addc9301908155335f5260028852610bea8460405f206117ad565b855f5260028852610bfe8460405f206117ad565b5484604051926040845281604085015260608401375f60608684010152878201526060813395601f80199101168101030190a4604051908152f35b634e487b7160e01b5f52601160045260245ffd5b905087013588610b86565b5f8381526020812092508690601f198216905b8b828210610ca357505010610c8a575b5050600184811b019055610b99565b8801355f19600387901b60f8161c191690558780610c7b565b840135855560019094019360209384019389935001610c6b565b815f5260205f20601f860160051c81019160208710610cf8575b601f0160051c01905b818110610ced5750610b71565b5f8155600101610ce0565b9091508190610cd7565b634e487b7160e01b5f52604160045260245ffd5b606460405162461bcd60e51b815260206004820152602060248201527f446561646c696e65206d757374206265206174206c65617374203120686f75726044820152fd5b60405162461bcd60e51b815260206004820152601460248201527f496e76616c6964207469746c65206c656e6774680000000000000000000000006044820152606490fd5b506064811115610ac7565b60405162461bcd60e51b815260206004820152602260248201527f456d706c6f79657220616e642063616e646964617465206d757374206469666660448201526132b960f11b6064820152608490fd5b60405162461bcd60e51b815260206004820152601960248201527f496e76616c69642063616e6469646174652061646472657373000000000000006044820152606490fd5b3461019e57602036600319011261019e57600435610e5f5f5482106116cf565b805f52600160205260405f2090600282019160ff835460a01c1660058110156104955760020361135e57610e986005820154421061171b565b817fb2246ea07d83b22c8811e60529b3f352433a46ed7eec8a1342b23a732d6914515f80a26006810190610ecc825461194d565b506007810190610edc825461194d565b5060088101610eeb815461194d565b506009820192610efb845461194d565b50610f0982548254906119aa565b94610f1781548654906119aa565b861561134d575b801561133a575b60209060646001600160a01b035f516020611c995f395f51905f525416985f6040519a8b94859363d99882d560e01b8552600485015260248401528160448401525af195861561123d575f96611306575b50805490835482156112f6575b80156112e4575b60209060646001600160a01b035f516020611c995f395f51905f525416945f6040519687948593631391547f60e01b8552600485015260248401528160448401525af191821561123d575f926112ae575b5054925461100493610fec92611a5e565b93610ffa82548254906119aa565b9154905491611a5e565b821561129e575b801561128c575b60209060646001600160a01b035f516020611c995f395f51905f525416945f604051968794859363022f65e760e31b8552600485015260248401528160448401525af1801561123d575f9061125a575b5f92508015611248575b60209060646001600160a01b035f516020611c995f395f51905f5254169160405195869384926348fcc7ff60e11b8452600484015260016024840152600160f81b60448401525af1801561123d5784925f916111e6575b50917f72f71578fb61fb8df4b6cf7b0f2038f0220bfae55b1cf2abcb59abb75a1f232060808195600b9461110183976110fa611b7a565b9084611a5e565b958183600a89940155015561111581611bc8565b61111e85611bc8565b805f52600360205260405f20600160ff19825416179055845f52600360205260405f20600160ff1982541617905560405190815260406020820152600860408201527f6861734d617463680000000000000000000000000000000000000000000000006060820152a260405190815260406020820152600c60408201527f6d656574696e67506f696e7400000000000000000000000000000000000000006060820152a2805460ff60a01b191674030000000000000000000000000000000000000000179055005b919250506020813d602011611235575b816112036020938361160d565b8101031261019e57518391907f72f71578fb61fb8df4b6cf7b0f2038f0220bfae55b1cf2abcb59abb75a1f23206110c3565b3d91506111f6565b6040513d5f823e3d90fd5b506020611253611b7a565b905061106c565b506020823d602011611284575b816112746020938361160d565b8101031261019e575f9151611062565b3d9150611267565b506020611297611b7a565b9050611012565b91506112a8611b7a565b9161100b565b91506020823d6020116112dc575b816112c96020938361160d565b8101031261019e57905190611004610fdb565b3d91506112bc565b5060206112ef611b7a565b9050610f8a565b9150611300611b7a565b91610f83565b9095506020813d602011611332575b816113226020938361160d565b8101031261019e57519488610f76565b3d9150611315565b5060206113465f611b2c565b9050610f25565b95506113585f611b2c565b95610f1e565b60405162461bcd60e51b815260206004820152601960248201527f4e6f7420726561647920666f722063616c63756c6174696f6e000000000000006044820152606490fd5b3461019e576113b136611535565b9192906113c05f5486106116cf565b845f52600160205260405f20906001600160a01b0360018301541633036114c257600282019460ff865460a01c1660058110156104955761147d576109696114179261096f60079661095e6005880154421061171b565b926114218161194d565b5061142b8461194d565b50600682015501557401000000000000000000000000000000000000000060ff60a01b1982541617905533907fcde0d3b1114dd6ed3408e1856099e71b2246a0257b9bf3624788c4955c79ce595f80a3005b60405162461bcd60e51b815260206004820152601a60248201527f456d706c6f79657220616c7265616479207375626d69747465640000000000006044820152606490fd5b60405162461bcd60e51b815260206004820152601860248201527f4f6e6c7920656d706c6f7965722063616e207375626d697400000000000000006044820152606490fd5b9181601f8401121561019e5782359167ffffffffffffffff831161019e576020838186019501011161019e57565b90608060031983011261019e576004359160243591604435916064359067ffffffffffffffff821161019e5761156d91600401611507565b9091565b600435906001600160a01b038216820361019e57565b805180835260209291819084018484015e5f828201840152601f01601f1916010190565b9060058210156104955752565b90600182811c921680156115e6575b60208310146115d257565b634e487b7160e01b5f52602260045260245ffd5b91607f16916115c7565b610140810190811067ffffffffffffffff821117610d0257604052565b90601f8019910116810190811067ffffffffffffffff821117610d0257604052565b9060405191825f825492611642846115b8565b80845293600181169081156116ad5750600114611669575b506116679250038361160d565b565b90505f9291925260205f20905f915b818310611691575050906020611667928201015f61165a565b6020919350806001915483858901015201910190918492611678565b90506020925061166794915060ff191682840152151560051b8201015f61165a565b156116d657565b60405162461bcd60e51b815260206004820152601a60248201527f4e65676f74696174696f6e20646f6573206e6f742065786973740000000000006044820152606490fd5b1561172257565b60405162461bcd60e51b815260206004820152601b60248201527f4e65676f74696174696f6e20646561646c696e652070617373656400000000006044820152606490fd5b92919267ffffffffffffffff8211610d025760405191611791601f8201601f19166020018461160d565b82948184528183011161019e578281602093845f960137010152565b80549068010000000000000000821015610d0257600182018082558210156117d9575f5260205f200155565b634e487b7160e01b5f52603260045260245ffd5b156117f457565b60405162461bcd60e51b815260206004820152601460248201527f4d61746368206e6f742063616c63756c617465640000000000000000000000006044820152606490fd5b611889916020916001600160a01b035f516020611c995f395f51905f525416905f60405180968195829463045fc19560e11b84526004840152336024840152608060448401526084830190611587565b6005606483015203925af190811561123d575f9161191b575b506001600160a01b037f9e7b61f58c47dc699ac88507c4f5bb9f121c03808c5676a8078fe583e46497005416803b1561019e57604051630f8e573b60e21b815260048101839052336024820152905f908290818381604481015b03925af1801561123d5761190e575090565b5f6119189161160d565b90565b90506020813d602011611945575b816119366020938361160d565b8101031261019e57515f6118a2565b3d9150611929565b6001600160a01b037f9e7b61f58c47dc699ac88507c4f5bb9f121c03808c5676a8078fe583e46497005416803b1561019e57604051635ca4b5b160e11b815260048101839052306024820152905f908290818381604481016118fc565b908115611a4e575b8015611a3c575b60209060646001600160a01b035f516020611c995f395f51905f525416935f6040519586948593631d44e90160e21b8552600485015260248401528160448401525af190811561123d575f91611a0d575090565b90506020813d602011611a34575b81611a286020938361160d565b8101031261019e575190565b3d9150611a1b565b506020611a47611b7a565b90506119b9565b9050611a58611b7a565b906119b2565b91908215611aec575b8015611ade575b8115611ac8575b6064602092935f6001600160a01b035f516020611c995f395f51905f5254166040519687958694637702dcff60e01b86526004860152602485015260448401525af190811561123d575f91611a0d575090565b602091506064611ad6611b7a565b925050611a75565b50611ae7611b7a565b611a6e565b9150611af75f611b2c565b91611a67565b46600103611b0a57600190565b4662aa36a703611b1a5761271190565b617a694614611b27575f90565b5f1990565b5f516020611c995f395f51905f5254604051639cd07acb60e01b815260048101929092526001600160a01b0316816044815f6020948160248401525af190811561123d575f91611a0d575090565b5f516020611c995f395f51905f5254604051639cd07acb60e01b81525f6004820152906001600160a01b0316816044815f602094600560248401525af190811561123d575f91611a0d575090565b6040805191611bd7828461160d565b600183526020830190601f1983013683378351156117d95781526001600160a01b037f9e7b61f58c47dc699ac88507c4f5bb9f121c03808c5676a8078fe583e4649700541690813b1561019e578251637d6e912360e11b815260206004820152935160248501819052849160448301915f5b818110611c7f5750505091815f81819503925af1908115611c765750611c6c5750565b5f6116679161160d565b513d5f823e3d90fd5b8251845287945060209384019390920191600101611c4956fe9e7b61f58c47dc699ac88507c4f5bb9f121c03808c5676a8078fe583e4649701a164736f6c634300081b000a",
  "linkReferences": {},
  "deployedLinkReferences": {}
}